:020000040800F2
:100000000050002035150008791500087915000802
:10001000791500087915000879150008000000001E
:10002000000000000000000000000000791500083A
:10003000791500080000000079150008BF0F0008BE
:100040007915000879150008791500087915000858
:100050007915000879150008791500087915000848
:100060007915000879150008791500087915000838
:100070007915000879150008791500087915000828
:100080007915000879150008EF08000879150008AF
:10009000E1040008791500087915000879150008B1
:1000A00079150008791500087915000879150008F8
:1000B00079150008791500087915000879150008E8
:1000C00079150008791500087915000879150008D8
:1000D000791500081F100008791500087915000827
:1000E000791500087915000879150008000000004E
:1000F0000000000000000000000000000000000000
:0C01000000000000000000005FF808F1A3
:10010C00AC170008000000201C0000201C00002080
:10011C00F8020020274B1A6822F480321A601A6801
:10012C0022F480221A601A6842F480321A604FF668
:10013C00FF721968880316D4013AFAD1012070476E
:10014C00002070475A6822F0030242F002025A6003
:10015C004FF6FF72596801F00C010829F0D0013AF2
:10016C00F8D103207047144A116821F01001116076
:10017C00116841F010011160116821F00701116044
:10018C00116841F00401116059680C4A0A4042F4AC
:10019C00E81242F480625A601A6842F080721A6067
:1001AC004FF6FF7219688901CCD4013AFAD10220BA
:1001BC00704700BF00100240002002400FC0C2FF79
:1001CC007047704700B9704700BF0138FAE700BFAD
:1001DC007047704770477047704700207047002089
:1001EC007047244AD36943F40003D3610122224BA4
:1001FC00A3F840200222A3F8402003F52C435A68B0
:10020C0022F4702242F4E0225A604FF080521A61BC
:10021C001A4A00BF013AFCD15A68194822F47022DC
:10022C0042F480225A600122134BA3F84020082389
:10023C00144A02F12001013B13F0FF0342F8040BB6
:10024C0041F8040BF7D10D4B00BF013BFCD10A4A1E
:10025C00A2F84030A2F85030A2F84C30A2F844304A
:10026C004FF4A053A2F840304FF48012064B1A60A2
:10027C00704700BF00100240005C0040A0860100E7
:10028C00DD0100081C00002000E100E0F0B500F0EA
:10029C000F073C4C4FEA870C002B14BF9E46A6461A
:1002AC000CF1804404F5B844238840B20028B5BF53
:1002BC0023F0C00323F0F0031B059B04B4BF1B0DFC
:1002CC009B0C43F4004343F08003238023880229D2
:1002DC0003F4106343EA070305D0032929D059BB63
:1002EC0043F4024301E043F4004343F08003264E01
:1002FC0023803B0103F1804300283588234803F514
:10030C00C0431CDA1D6040F63F7301F00301012964
:10031C002188844403EA010383F40043CCF820E0F1
:10032C000CBF83F0B00383F0A0032A4423803280F7
:10033C00F0BD43F40643D8E743F40443D5E79D608E
:10034C0099893F2A8BBF41F400416FF3CF319981DA
:10035C009981B3F80CC08ABF5109C2F3440101F171
:10036C00FF3161F38E2CA3F80CC0238840F827E0F2
:10037C0023F0F0039B049B0C83F4304383F0800345
:10038C00D3E700BFDD010008000000201C000020A6
:10039C0048F2800CF0B54C4C00F00F05AE00002B71
:1003AC0014BF1F46274606F1804404F5B844238841
:1003BC00022923F0C0034FEA03534FEA13534CEACC
:1003CC0003032380238823F0F0034FEA83434FEA8F
:1003DC0093434CEA030CA4F800C0238803F4106385
:1003EC0043EA05032CD003292DD079BB43F40243F7
:1003FC00DFF8D8C043F08003BCF8001023802B0139
:10040C0003F18043000603F5C04301EB020E20D537
:10041C00002019605860C3F808E0D860238823F4E2
:10042C0040531B041B0C83F030032380284B01EB3F
:10043C0042011E44376243F82570ACF80010F0BD41
:10044C0043F40143D4E743F40643D1E743F40443B4
:10045C00CEE799603F2AC3F800E0988828D86FF35C
:10046C00CF30988098896FF3CF309881C2F34400D5
:10047C00B3F804E060F38E2EA3F804E0B3F80CE0BC
:10048C0060F38E2EA3F80CE0238823F0F0039B047A
:10049C009B0C83F4304383F080032380238823F068
:1004AC00C0031B051B0D83F4004383F0B003BCE7B2
:1004BC0040F400409880988940F40040988150099D
:1004CC00013800F01F00D3E7DD0100080000002018
:1004DC001C0000202DE9F0414A4CB4F844301904BA
:1004EC002FD5DFF82481B4F8446006F00F06B7006E
:1004FC0007F1804505F5B8452B881A040BD558F83B
:10050C002630304698472B8823F0F0031B051B0D33
:10051C0043F080032B802B881B060CD547443B6A89
:10052C0046F0800098472B8823F0F0031B051B0D29
:10053C0043F400432B80B4F844301D04D3D4BDE8FD
:10054C00F081B4F84430980506D500F029FD4FF63B
:10055C00FF53A4F84430F2E7B4F8443059052DD5D4
:10056C00FFF738FE4FF41E434022A4F84030274BCF
:10057C0027491A808023A4F84C30234B08241D46AD
:10058C0003F12002013C14F0FF0443F8041B42F871
:10059C00041BF7D14FF6FF321A4B2146A3F8442027
:1005AC00204608221B4BFFF771FE082221468020B3
:1005BC00194BFFF76BFE2C6400F02EFC114CB4F8B9
:1005CC0044301A050CD5FFF705FEB4F840309BB249
:1005DC0043F00C03A4F840304FF2FF73A4F84430FE
:1005EC00084AB2F84430DB04A9D5B2F8403023F005
:1005FC000C031B041B0CA2F840304EF6FF73A2F840
:10060C0044309CE7005C00401C00002000000020EF
:10061C00DD010008110700087D060008F0B5002573
:10062C00C40004F1804404F5C0442368561C03F153
:10063C00005303F5405376085B00AFB2BE4211D8AD
:10064C004008800000F18040626000F5B8400388EB
:10065C0023F0C0031B051B0D83F4004383F0B00390
:10066C000380F0BD31F8157043F825700135E4E7CF
:10067C0038B50C4C216CA1B1B4F844500020082DB5
:10068C002A4628BF0822FFF7C9FF072D98BF002371
:10069C00A5EB020288BF0831A4F844208CBF21646A
:1006AC00236438BD1C00002030B5C20002F180422A
:1006BC0002F5C04203465068C0F3090008B3146841
:1006CC00421C04F10054521004F540549200650091
:1006DC00023902EB440235F8044B954221F8024FE3
:1006EC00F9D15B089B0003F1804303F5B8431A88EA
:1006FC0022F0F0029204920C82F4304282F08002DA
:10070C001A8030BD37B5524B524CDD68A3F580636F
:10071C001A8894F84600120594F94630C5F3090579
:10072C0003D4002B28DA03B030BD002B1EDA0025D1
:10073C00012004F14601FFF7B7FF94F84630A4F806
:10074C004E5003F07F001B0616D500284BD194F8B1
:10075C004730062B27D0082B42D0002B43D1022246
:10076C003D4903B0BDE83040FFF758BFB4F84C200A
:10077C00B4F84E309A42DAD900284AD194F847306E
:10078C00052B3CD10246014694F84840FFF746FF42
:10079C00324A138803F03003302BFAD044F0800433
:1007AC00A2F84C40BFE70123ADF802000DF10202A4
:1007BC00B4F8480001A9019300F0C6FAB4F84C3023
:1007CC00BDF8022080209A4288BFADF80230BDF8F7
:1007DC000230A4F84430019B2364FFF749FFA2E7E1
:1007EC0001221F49BDE70123019300230DF10202F1
:1007FC0001A91C48ADF8023000F0EEFADEE7092B37
:10080C0007D1B4F8483084F8503000221146104615
:10081C00A7E72A46B4F84E10124800F0EBFA50B98C
:10082C000E4A138823F0F0039B049B0C83F4304393
:10083C0083F080031380B4F84E301D44B4F84C3070
:10084C00ADB2AB42A4F84E503FF66DAFDDE700BF42
:10085C00006000401C00002010160008005C0040E6
:10086C006C0000206200002070B5104E00F00F00EC
:10087C003146830003F1804303F5B84311F8022B92
:10088C001D881C88C5F3803524F0F0042405240D44
:10089C0044F4404444F080041C80520005EB4000BA
:1008AC00FFF7BCFE0023337070BD00BF700000204A
:1008BC00044A1368A3EB132303EB00101060C0F37E
:1008CC000F20704704000020044A5368A3EB9323C5
:1008DC0018445060C0F38F20704700BF0400002004
:1008EC00704710B52849294A91F85A3033B9D36C5E
:1008FC00A1F85C30012381F85A3010BDD46CB1F8EA
:10090C005C2001331444DBB2A4B2032BA1F85C408D
:10091C00F1D90023A408204681F85A30A1F85C4094
:10092C00FFF7C6FF78225043B1F85E309BB2B0FBA4
:10093C00F3F080B2A1F860002046FFF7C5FF0B78FA
:10094C002B2B0AD80B78241AE40001EB430324B2B6
:10095C005C800B780133DBB20B7091F862300B4A80
:10096C00FF2B1FBF91F862300133DBB281F862308C
:10097C004FF080435B6A9BB2A1F86430136823F09C
:10098C0002031360B9E700BF70000020002801408B
:10099C001A4A92F862302C2B09D94FF08043D96A4D
:1009AC00B1F54C7F1FD2D96A0131D9621BE092F8A4
:1009BC0062302B2B4FF0804305D8D96A332912D9DA
:1009CC00D96A0139F1E7B2F86410D86A89B2B1EB8F
:1009DC00500FE8D8B2F86400D96A80B201EB41013B
:1009EC00B0EB910FECD34FF08043002058621968A4
:1009FC0041F00401196082F8620070477000002019
:100A0C000378812B08D14378062B03D14388B3F5A7
:100A1C00085F11D000207047A12BFBD14378012B2C
:100A2C00F8D1074BB3F8600080B223F8660F0220B0
:100A3C000B601080012070471520024BF8E700BFB7
:100A4C00700000201216000810B50378212B40F01E
:100A5C00B6804378092B40F0B280002A00F0AD80BC
:100A6C00022A40F0AC80574C012004F16801FFF7DA
:100A7C001BFEB4F86830544A13F0010F14BF4FF446
:100A8C0080434FF080431361B4F8683013F0020FC9
:100A9C0014BF4FF480714FF080714C4B1961B4F856
:100AAC00683013F0040F14BF08214FF40021484B99
:100ABC001961B4F8681009074CBF04214FF4802168
:100ACC001961B4F86810C8064CBF4FF400514FF0D0
:100ADC0000511161B4F8682012F0200F14BF80216E
:100AEC004FF40001394A1161B4F8682051064CBF2B
:100AFC0001224FF480321A61B4F8682012064CBF00
:100B0C0002224FF400321A61B4F8682012F4807F8C
:100B1C0014BF10214FF480112C4A1161B4F86820D5
:100B2C0012F4007F14BF08214FF40021274A1161F1
:100B3C00B4F8682012F4806F14BF01214FF4803197
:100B4C00224A1161B4F8682012F4006F14BF02211C
:100B5C004FF400311D4A1161B4F8682012F4805F23
:100B6C0014BF40214FF48001184A1161B4F8682079
:100B7C0012F4005F14BF20214FF40011134A1161CD
:100B8C00B4F8682012F4804F14BF4FF400614FF09A
:100B9C0000610E4A1161B4F8682012F4004F14BFC2
:100BAC004FF480614FF08061084A116140221A6154
:100BBC00084B1B6803F57A73E366012010BD002017
:100BCC00FCE700BF7000002000100140000C014049
:100BDC0000080140E40000204D4A10B593694D49CE
:100BEC0043F001039361A2F5883253684FF400245B
:100BFC0023F0E06343F0007353604B6823F07063A1
:100C0C0043F040734B60444B5A6822F00F0242F0A1
:100C1C0003025A60414A106820F4704040F440507E
:100C2C001060106820F4706040F4407010604868E8
:100C3C0020F4700040F440104860186820F07040B8
:100C4C0040F040501860106820F00F0040F0030096
:100C5C001060106820F0F00040F030001060186850
:100C6C0020F4702040F440301860186820F4704074
:100C7C0040F440501860186820F00F0040F003005A
:100C8C001860186820F0F00040F030001860186808
:100C9C0020F0706040F040701860186820F470000C
:100CAC0040F440101860586820F4704040F44050F4
:100CBC005860586820F4706040F4407058604FF0F1
:100CCC00804008614FF0807018614FF480201461EF
:100CDC0010614FF0005008614FF400014FF4803068
:100CEC0019614FF40031106111614FF480121A61D7
:100CFC004FF480021C61186119611A614FF40012E3
:100D0C001A614FF000621A614FF080621A6110BDD7
:100D1C000010024000100140000C0140000801408E
:100D2C00064B1A68064BD96E914206D24FF0FF3231
:100D3C00DA664FF48002034B1A617047E40000201E
:100D4C00700000200008014000F47F43B3F5407FA1
:100D5C0019D006D8B3F5807F07D0B3F5007F09D042
:100D6C007047B3F5C06F0AD07047124B0B6012235B
:100D7C0013807047104B0B604FF48173F8E70F4BE7
:100D8C000B600A23F4E7C0B20528F2D8DFE800F0C4
:100D9C000F0307090B0D0A4B0B601B78E8E7094B97
:100DAC00FAE7094BF8E7094BF6E7094BF4E7094B6F
:100DBC00F2E700BF8E160008A0160008A217000864
:100DCC002C16000842160008641600086816000865
:100DDC007A1600082816000810B50446FFF710FE16
:100DEC0030B9204600F0A6F9003818BF012010BD1C
:100DFC000120FCE770B504460D461646FFF724FEAD
:100E0C0040B932462946204600F0E4F9003818BFB4
:100E1C00012070BD0120FCE708B5FFF7DDFE642260
:100E2C000121484B8520FFF7B3FA474A474913681D
:100E3C0023F07043136002F58432936943F48063AA
:100E4C0093618B6843F001038B60536823F000536C
:100E5C0023F4404343F000535360142300BF013B81
:100E6C00FCD18B6843F004038B60384B99684907BD
:100E7C00FCD4196921F460011961596B21F01F012F
:100E8C0041F007015963D96A21F47001D96299685C
:100E9C0021F4F01141F4B0119960596841F020012E
:100EAC0059604FF480212A4B19609369294943F406
:100EBC00007393618B6843F001038B60536823F0DC
:100ECC00005323F4404343F000535360142300BFFA
:100EDC00013BFCD18B6843F004038B601D4B98687D
:100EEC0010F00400FBD1996841F400019960D968B5
:100EFC0021F4600141F42001D960596B21F01F01EC
:100F0C0041F011015963D96A21F47001D962D36996
:100F1C0043F00103D3614FF08043CC229862DA6234
:100F2C001A6842F080021A604FF460529A611022E3
:100F3C001A621A6842F001021A60BDE8084000F01B
:100F4C008DB900BF75080008000801400028014059
:100F5C0000E100E00024014008B5FFF7E1FE0D4B75
:100F6C000D4918680A6F904210D31B680B4A03F5A1
:100F7C007A730B6713689B0708D5D36C1B019BB264
:100F8C00A1F85E30936843F001039360BDE808401C
:100F9C0000F012BAE4000020700000200024014090
:100FAC00FFF7F6BC4FF0E023DA695A6103221A61AD
:100FBC007047024A1368013313607047E400002045
:100FCC0003784278981AC0B2704701784278034689
:100FDC0091420BD00278024490781A78C0B2013258
:100FEC00D2B21A701A78D2B21A70704700207047B9
:100FFC00037842789B1ADBB2012B09D04378034467
:10100C00997043780133DBB243704378DBB24370A1
:10101C00704710B50F4C23689A0606D561680E48C8
:10102C00C9B2BDE81040FFF7E3BF23681B060BD520
:10103C00094890F8022190F803319A4205D000F546
:10104C008170FFF7C2FF606010BDE36823F080037E
:10105C00E360F9E700380140E800002070B5044671
:10106C004518074E0748AC4200D170BD14F8011B5F
:10107C00FFF7BEFFF36843F08003F360F3E700BFB4
:10108C0000380140EA01002038B5441E064D0748DF
:10109C0014F8011F01B938BDFFF7AAFFEB6843F044
:1010AC008003EB60F4E700BF00380140EA01002048
:1010BC0070B50446084E4518AC4200D170BD32786C
:1010CC0073789B1A03F0FF03002BF8D03046FFF720
:1010DC007CFF04F8010BEFE7E8000020F8B50546AB
:1010EC004C1E134EE4B2FF2C2F460DD13B7853B15E
:1010FC00022C83BF0A233B700D23002385BF7B701A
:10110C0000233B70BB70F8BD327873789B1A03F0E8
:10111C00FF03002BF8D03046FFF757FF05F8010B03
:10112C000028E3D0631E0D28DBB2DFD01C46DAE7C3
:10113C00E8000020037803F07F03212B0FD14378C4
:10114C00212B0CD18388012B07D0032B07D1054B06
:10115C000B600723012013807047034BF8E7002036
:10116C00704700BF0C000020130000200368174AD2
:10117C00B2FBF3F2164B9A60427942B9DA6822F468
:10118C008062DA60DA6822F48052DA607047427961
:10119C00012A0BD1DA6842F48052DA60DA6842F440
:1011AC008062DA60DA6842F40072EEE74279022A71
:1011BC00ECD1DA6842F48052DA60DA6842F4806288
:1011CC00DA60DA6822F40072DFE700BF00A24A049A
:1011DC000038014038B5037803F07F03212B33D15D
:1011EC004378202B30D162B1808801280BD117496C
:1011FC00FFF75AFA164B93F8043213B91348FFF75A
:10120C00B5FF012038BD03281ED1124D01202946FF
:10121C00FFF74AFA2B680E4C322B0AD1022384F8C2
:10122C0004320D4B1B6803F51C531033C4F8083201
:10123C00E7E794F80432022BE3D10123284684F823
:10124C000432FFF793FFECE70020DBE713000020EC
:10125C00E80000200C000020E40000202B4A70B5B0
:10126C005368002423F4706343F480635360536821
:10127C00202623F0F00343F0B0035360244B254D9C
:10128C009A69032142F001029A619A69832042F41F
:10129C0080429A6141F64C52A3F558439A6042F24F
:1012AC002C02DA601C615C619C611B4B2C70082267
:1012BC006C7085F8024185F803415E60234685F821
:1012CC000442FEF7E3FF2346324602218120FEF75B
:1012DC00DDFF2346324602210120FEF7D7FF2346CD
:1012EC00082203218420FEF7D1FF23463246022137
:1012FC008220FEF7CBFF0221234632460846FEF73A
:10130C00C5FF012385F80C3270BD00BF00080140F9
:10131C0000100240E800002000E100E0244A70B513
:10132C009368926883F480539204C3F3003301D51D
:10133C0043F00203441E00261E4DC0F101000AE0DA
:10134C0062787A2A08BFC5F8086214F8012F522A6D
:10135C0015D143F0010302198A42F1DB13F0010F9E
:10136C0014BF4FF080514FF480519B074CBF4FF48A
:10137C0000534FF000530E4A1161136170BD722A75
:10138C0002D103F0FE03E6E7422A02D143F0020346
:10139C00E1E7622A02D103F0FD03DCE7552A02D112
:1013AC0043F00403D7E7752AD5D103F0FB03D2E74A
:1013BC00000C0140E800002030B5564C91B094F878
:1013CC000C32002B61D023786578ED1A15F0FF05EF
:1013DC0015D094F80422202D28BF20254E4B002A2E
:1013EC0055D19B8803F03003302B08D02946684632
:1013FC00FFF75EFE2A4669460220FFF70FF994F8C4
:10140C000432454D002B58D12B8903F44053B3F5CE
:10141C00005F03D1052008A9FFF746F9AB8803F458
:10142C004053B3F5005F17D1012094F80432022B1E
:10143C005CD094F8023194F803219B1ADBB2C3F10F
:10144C00FF032A2B08DD400008A90130FFF72CF917
:10145C00C1B208A8FFF702FE94F804325BB12F4B1F
:10146C001B68D4F808229A4205D200232C4884F831
:10147C000432FFF77BFE94F804222A4B002A3ED15B
:10148C0010221A614FF400121A6111B030BD94F899
:10149C000422012A0CD11B8903F03003302BAED06F
:1014AC0029466846FFF704FE2A4669460420A4E74D
:1014BC0029466846FFF7FCFDA1E7AB8803F44053CF
:1014CC00B3F5005F03D1032008A9FFF7EDF82B89D2
:1014DC0003F44053B3F5005FBED1104B02201B68E0
:1014EC0003F51C531033C4F808329EE708A90520F5
:1014FC00FFF7DAF8014608A8FFF710FFACE794F8FD
:10150C000422012A4FF020021A610CBF4FF4801202
:10151C001022B9E7E8000020005C0040E400002045
:10152C001300002000080140002103E00A4B5B5827
:10153C004350043109480A4B42189A42F6D3094ADF
:10154C0002E0002342F8043B074B9A42F9D3FEF722
:10155C0038FE00F00DF87047AC17000800000020B2
:10156C001C0000201C000020F8020020FEE70000F8
:10157C0008B5FEF7CFFDFFF715FD1F4A936943F041
:10158C001C0393611D4B1A6822F4700242F4401242
:10159C001A601A6822F4702242F440321A601A68F7
:1015AC0022F0706242F040721A601A6822F07042A7
:1015BC001A60134A516821F4702141F44031516092
:1015CC00516821F4700141F4401151604FF4001145
:1015DC0019614FF4801119614FF4800119614FF4B6
:1015EC00805313614FF000531361FEF7FAFD62B69E
:1015FC00FFF7B2FCFCE700BF0010024000080140FE
:10160C00000C014000000600FF0901A10115002596
:10161C00FF750895020900B20201C0000403090419
:10162C00160343004F004B0050004F00570045007D
:10163C0048004500550022034B0061007200610018
:10164C006B006100740069007400730061005F003E
:10165C0043004800330032000403310012034300FE
:10166C004800330032005F0044004200470014037E
:10167C0043004800330032005F00500052004F001E
:10168C00470012011001EF020108C016DF0501002E
:10169C000102030109020201070100803209040062
:1016AC0000000300000009210101000122150008BF
:1016BC000B010202020004090401000102020004F1
:1016CC000524001001052401000204240202052453
:1016DC000601020705830308006409040200020ADC
:1016EC000000000705010220000007058102200010
:1016FC0000080B03020202000509040300010202A8
:10170C000005052400100105240100040424020234
:10171C000524060304070584030800640904040077
:10172C00020A0000000705020220000007058202E1
:10173C00200000080B05020101000009040500004F
:10174C000101000009240100011E0001060C240205
:10175C000101020001000000000924030201010044
:10176C000100090406000001020000090406010141
:10177C0001020000072401020101000B24020101F7
:10178C00021001E0AB0009058501640001000007AF
:10179C002501000000000A060002000000080100FC
:1017AC0040000000000080000000200080250000A8
:0C17BC000100088025000001000800006A
:040000050800010CE2
:00000001FF
