:020000040800F2
:100000000050002035150008791500087915000802
:10001000791500087915000879150008000000001E
:10002000000000000000000000000000791500083A
:10003000791500080000000079150008690D000816
:100040007915000879150008791500087915000858
:100050007915000879150008791500087915000848
:100060007915000879150008791500087915000838
:100070007915000879150008791500087915000828
:100080007915000879150008DB08000879150008C3
:10009000F904000879150008791500087915000899
:1000A00079150008791500087915000879150008F8
:1000B00079150008791500087915000879150008E8
:1000C00079150008791500087915000879150008D8
:1000D00079150008CB0D000879150008791500087E
:1000E000791500087915000879150008000000004E
:1000F0000000000000000000000000000000000000
:0C01000000000000000000005FF808F1A3
:10010C001418000800000020240000202400002007
:10011C0004070020274B1A6822F480321A601A68F0
:10012C0022F480221A601A6842F480321A604FF668
:10013C00FF721968880316D4013AFAD1012070476E
:10014C00002070475A6822F0030242F002025A6003
:10015C004FF6FF72596801F00C010829F0D0013AF2
:10016C00F8D103207047144A116821F01001116076
:10017C00116841F010011160116821F00701116044
:10018C00116841F00401116059680C4A0A4042F4AC
:10019C00E81242F480625A601A6842F080721A6067
:1001AC004FF6FF7219688901CCD4013AFAD10220BA
:1001BC00704700BF00100240002002400FC0C2FF79
:1001CC007047704710F1FF3000D2704700BFF9E75D
:1001DC007047704770477047704700207047002089
:1001EC007047234AD36943F40003D3610122214BA6
:1001FC00A3F840200222A3F8402003F52C435A68B0
:10020C0022F4702242F4E0225A604FF080521A61BC
:10021C00194A00BF013AFCD15A68184822F47022DE
:10022C0042F480225A600122124B1549A3F8402057
:10023C000823144A013B13F0FF0340F8041B42F857
:10024C00041BF7D10C4B00BF013BFCD1094AA2F8AF
:10025C004030A2F85030A2F84C30A2F844304FF4A1
:10026C00A053A2F840304FF48012074B1A6070472D
:10027C0000100240005C0040A086010084020020B7
:10028C00DD0100086402002000E100E0F0B5414C03
:10029C0000F00F074FFA80FCBD00002B08BF23466F
:1002AC0005F18045BCF1000F05F5B84517DA288833
:1002BC0020F0C0000005000D40F4004040F080002C
:1002CC0028802C88022904F4106444EA070411D015
:1002DC00032935D0002936D144F402440CE02C8893
:1002EC0024F0F004A404A40C44F4004444F080046E
:1002FC002C80E6E744F4004444F080042C8026482B
:10030C003C0104F18044BCF1000F068804F5C044A4
:10031C001CDA2660214C01F0030144F8273040F62A
:10032C003F730129298803EA010383F400430CBFBE
:10033C0083F0B00383F0A00332442B800280F0BD25
:10034C0044F40644D8E744F40444D5E7A660A189F4
:10035C003F2A8BBF41F400416FF3CF31A181A181C2
:10036C00B4F80CC08ABF5109C2F3440101F1FF314A
:10037C0061F38E2C0A49A4F80CC041F827302B8865
:10038C0023F0F0039B049B0C83F4304383F0800335
:10039C00D2E700BFDD01000800000020640200204D
:1003AC0084020020F0B548F2800700F00F06B5007B
:1003BC004A4C05F1804505F5B845002B08BF23468E
:1003CC002C88022924F0C0044FEA04544FEA145438
:1003DC0044EA07042C802C8824F0F0044FEA84446F
:1003EC004FEA944447EA04072F802C8804F41064E5
:1003FC0044EA06042FD0032930D091BB44F40241C7
:10040C00DFF8E4C041F080012980BCF800403101E4
:10041C0001F1804110F0800F01F5C04102EB04079F
:10042C00604621D04FF0000C0C60C1F804C08F6006
:10043C00C1F80CC0298881F0300121F4405189B2F7
:10044C002980274904EB420241F8263025490280D5
:10045C0041F82630F0BD44F40141D1E744F40641A3
:10046C00CEE744F40441CBE78C603F2A0F608F88C1
:10047C0028D86FF3CF378F808F896FF3CF378F8169
:10048C00C2F34407B1F804C067F38E2CA1F804C082
:10049C00B1F80CC067F38E2CA1F80CC0298821F0A0
:1004AC00F0018904890C81F4304181F080012980AC
:1004BC00298821F0C0010905090D81F4004181F062
:1004CC00B001BDE747F400478F808F8947F40047A0
:1004DC008F815709013F07F01F07D3E7DD010008A3
:1004EC006402002084020020000000202DE9F0416D
:1004FC004A4CB4F84430190430D5494FDFF8288100
:10050C00B4F8446006F00F06B50005F1804505F51A
:10051C00B8452B881A040BD557F826303046984727
:10052C002B8823F0F0031B051B0D43F080032B805D
:10053C002B881B060CD558F8263046F080009847BF
:10054C002B8823F0F0031B051B0D43F400432B8079
:10055C00B4F844301D04D3D4BDE8F081B4F8443071
:10056C00980506D500F0F0FB4FF6FF53A4F8443085
:10057C00F2E7B4F8443059052CD5FFF72BFE4FF4B5
:10058C001E434022A4F84030264B25491A80802374
:10059C00A4F84C300824244B244A013C14F0FF04EA
:1005AC0041F8042B43F8042BF7D14FF6FF321B4BC9
:1005BC002146A3F8442020461D4B0822FFF766FE77
:1005CC001C4B082221468020FFF760FE1A4B1C6052
:1005DC0000F0F2FA114CB4F844301A050BD5FFF7C1
:1005EC00F9FDB4F8403043F00C03A4F840304FF25E
:1005FC00FF73A4F84430094AB2F84430DB04ABD59D
:10060C00B2F8403023F00C031B041B0CA2F8403052
:10061C004EF6FF73A2F844309EE700BF005C00402A
:10062C00840200200000002064020020DD0100088C
:10063C002B0700089D06000824000020F0B50025BB
:10064C00C40004F1804404F5C0442368561C03F133
:10065C00005303F5405376085B00AFB2BE4211D88D
:10066C004008800000F18040626000F5B8400388CB
:10067C0023F0C0031B051B0D83F4004383F0B00370
:10068C000380F0BD31F8157043F825700135E4E7AF
:10069C00F8B50B4C256895B1A7882946082F3E461E
:1006AC0028BF082600203246FFF7C8FF072FA7EB0C
:1006BC000603A38093BF0023AD1925602360F8BD0A
:1006CC002400002030B5C20002F1804202F5C04285
:1006DC0003465068C0F3090000B31268441C02F1D1
:1006EC00005202F5405252006410023902EB8404AD
:1006FC0032F8045BA24221F8025FF9D15B089B003F
:10070C0003F1804303F5B8431A8822F0F0029204F7
:10071C00920C82F4304282F080021A8030BD73B5A4
:10072C00464B474CDD68A3F580631B88C5F3090570
:10073C0013F4006609D094F90630002B17DA002563
:10074C0040490120FFF7BEFFE581A27902F07F034B
:10075C0012063CD54EB373BBE07906280CD00828A2
:10076C0025D040BB02223849FFF768FF1DE0A28963
:10077C00E3899A42E9D8E2E7012201A90192208992
:10078C000DF10202ADF8023000F098F9BDF802202C
:10079C00A38980209A4288BFADF80230BDF80230A0
:1007AC00A380019B2360FFF773FF02B070BD012291
:1007BC0026491846D8E70123019300230DF10202C4
:1007CC0001A92048ADF8023000F0C6F9DEE7DBB92C
:1007DC00E279052A10D11A4619461846247AFFF7F1
:1007EC002DFF1B4A138803F03003302BFAD044F052
:1007FC008004A2F84C40D8E7092A05D1228922743A
:10080C00002211461046AFE72A46E1890D4800F058
:10081C00BAF950B90E4A138823F0F0039B049B0CD1
:10082C0083F4304383F080031380E3891D44A38950
:10083C00ADB2AB42E581B8D8E2E700BF0060004042
:10084C00240000202A000020241600083400002078
:10085C00005C004000F00F0038B583000D4D03F133
:10086C00804303F5B8432A781C881988C4F3803474
:10087C0021F0F0010905090D41F4404141F08001DE
:10088C0019805200044904EB4000FFF7D7FE002307
:10089C002B7038BD38000020A6020020044A1368D3
:1008AC00A3EB132303EB00101060C0F30F20704771
:1008BC0004000020044A5368A3EB932318445060AF
:1008CC00C0F38F20704700BF04000020704710B5A4
:1008DC0020494B7803B94B801F4A0133D46C4A88AA
:1008EC00DBB21444A4B2032B4C8001D84B7010BD66
:1008FC000023A40820464B704C80FFF7CFFF7823D1
:10090C0058438A88B0FBF2F080B2C8802046FFF7CB
:10091C00D1FF0B782B2B0BD80B78241AE4000F4A41
:10092C00DBB224B222F813400B780133DBB20B702C
:10093C000B7A094AFF2B1FBF0B7A0133DBB20B7208
:10094C004FF080435B6A9BB24B81136823F0020328
:10095C001360CCE73800002000280140A6020020DC
:10096C00174A137A2C2B09D94FF08043D96AB1F569
:10097C004C7F1AD2D96A0131D96216E0137A2B2B2B
:10098C004FF0804305D8D96A33290ED9D96A013979
:10099C00F2E75189D86AB1EB500FEBD85089D96A7C
:1009AC0001EB4101B0EB910FF0D34FF080430020ED
:1009BC005862196841F0040119601072704700BF49
:1009CC003800002010B50378812B0CD14378062B0E
:1009DC0017D14388B3F5085F13D10B4B01200B6083
:1009EC001523138010BDA12B0BD14078012808D101
:1009FC00064BDC88A4B223F80C4F0B600223138047
:100A0C00F0E70020EEE700BF2616000838000020B3
:100A1C0010B50378212B26D14378092B23D102B3AF
:100A2C00022A20D1114C01202146FFF74BFE104920
:100A3C00CB68228803F47F43D2B213430D4ACB60B8
:100A4C00D3682188DBB201F47F410B43D360D368B8
:100A5C0083F04003D360084B084A1B6803F57A7394
:100A6C001361012010BD0020FCE700BFA402002090
:100A7C0000080140000C014050000020380000200C
:100A8C004FF03333024A1360C2F80434704700BF8E
:100A9C0000080140064B1A68064B1969914206D2B0
:100AAC004FF0FF321A614FF48002034B1A6170470A
:100ABC005000002038000020000C014000F47F435F
:100ACC00B3F5007F10D003D8B3F5807F07D0704703
:100ADC00B3F5407F11D0B3F5C06F0AD07047144BFB
:100AEC000B60122313807047124B0B604FF4A273F0
:100AFC00F8E7114B0B600A23F4E7C0B20628F2D8D2
:100B0C00DFE800F004090B0D0F1113000B4B0B6009
:100B1C000B681B78E6E70A4BF9E70A4BF7E70A4B39
:100B2C00F5E70A4BF3E70A4BF1E70A4BEFE700BF97
:100B3C003B1600084D160008911700089C1700087A
:100B4C00A0170008B6170008E0170008E417000803
:100B5C00EC170008FC17000870B504460D46164645
:100B6C00FFF730FF08B1012070BD204600F0B8F946
:100B7C000028F8D132462946204600F017FC0030F8
:100B8C0018BF0120F0E770B504460D461646FFF776
:100B9C003FFF08B1012070BD32462946204600F0C7
:100BAC00F1F90028F6D132462946204600F014FC13
:100BBC00003018BF0120EEE708B5FFF761FF494B85
:100BCC00642201218720FFF7EDFB474A4749136850
:100BDC0023F0F0031360464B9A6942F480629A61E9
:100BEC008A6842F001028A605A6822F0005222F4AC
:100BFC00404242F000525A60142200BF013AFCD12C
:100C0C008A6842F004028A60384A91684907FCD429
:100C1C00116921F060511161516B21F01F0141F0FC
:100C2C0009015163D16A21F47001D162916821F4F8
:100C3C00F01141F4B0119160516841F02001516004
:100C4C004FF480212B4A11609A692B4942F40072AF
:100C5C009A618A6842F001028A605A6822F0005256
:100C6C0022F4404242F000525A60142200BF013A72
:100C7C00FCD18A6842F004028A601F4A906810F026
:100C8C000400FBD1916841F400019160D16821F41A
:100C9C00600141F42001D160516B21F01F0141F042
:100CAC0011015163D16A21F47001D162DA6942F009
:100CBC000102DA614FF08043CC229862DA621A6842
:100CCC0042F080021A604FF460529A6110221A624C
:100CDC001A6842F001021A6000F09AF9BDE8084067
:100CEC0000F092BB61080008000C01400028014094
:100CFC000010024000E100E00024014008B5FFF7BD
:100D0C00C9FE0E4B0E4918684A6990420FD31B68F6
:100D1C000C4A03F57A734B6113689B0707D5D36CA8
:100D2C001B019BB28B80936843F00103936000F02E
:100D3C002FFABDE8084000F0D7BB00BF50000020E0
:100D4C003800002000240140FFF70ABE024BDA688D
:100D5C005A6003221A60704710E000E0024A1368E0
:100D6C0001331360704700BF5000002003784078B7
:100D7C00181AC0B2704701784278034691420BD0E2
:100D8C000278024490781A78C0B20132D2B21A704A
:100D9C001A78D2B21A7070470020704703784278E4
:100DAC009B1ADBB2012B09D043780344997043782A
:100DBC000133DBB243704378DBB24370704710B53C
:100DCC000F4C23689A0606D561680E48C9B2BDE877
:100DDC001040FFF7E3BF23681B060BD5094890F8BA
:100DEC00022190F803319A4205D000F58170FFF78B
:100DFC00C2FF606010BDE36823F08003E360F9E795
:100E0C000038014054000020F8B50446074F084D47
:100E1C004618B44200D1F8BD14F8011B3846FFF750
:100E2C00BDFFEB6843F08003EB60F2E75601002056
:100E3C000038014070B5074E074D441E14F8011FD1
:100E4C0001B970BD3046FFF7A9FFEB6843F0800392
:100E5C00EB60F3E7560100200038014070B5044602
:100E6C00084D4618B44200D170BD2A786B789B1A95
:100E7C0013F0FF0FF9D02846FFF77DFF04F8010BA4
:100E8C00F0E700BF54000020F8B506460139134FB7
:100E9C00CCB2FF2C35460DD12B7853B1022C83BF2D
:100EAC000A232B700D23002385BF6B7000232B703E
:100EBC00AB70F8BD3A787B789B1A13F0FF0FF9D022
:100ECC003846FFF758FF06F8010B0028E4D0631EE4
:100EDC000D28DBB2E0D01C46DBE700BF540000203D
:100EEC00037803F07F03212B12D14378212B0FD1F0
:100EFC008088012804D1074B0B60072313807047AF
:100F0C00032805D1044B01200B6007231380704785
:100F1C00002070470C000020130000200368174AC3
:100F2C00B2FBF3F2164B9A60427942B9DA6822F4BA
:100F3C008062DA60DA6822F48052DA6070474279B3
:100F4C00012A0BD1DA6842F48052DA60DA6842F492
:100F5C008062DA60DA6842F40072EEE74279022AC3
:100F6C00ECD1DA6842F48052DA60DA6842F48062DA
:100F7C00DA60DA6822F40072DFE700BF00A24A04EC
:100F8C000038014038B5037803F07F03212B37D1AB
:100F9C004378202B34D10AB9012038BD8488012C28
:100FAC000CD118492046FFF78DFB174B93F80432F0
:100FBC00002BF1D11348FFF7B1FFEDE7032C1FD144
:100FCC00104D0120E91DFFF77DFBD5F807300E4CC5
:100FDC00322B0AD1022384F804320C4B1B6803F524
:100FEC001C531033C4F80832D6E794F80432022BA1
:100FFC00D2D10121E81D84F80412FFF78FFFECE732
:10100C000020CAE70C0000205400002050000020F3
:10101C002B4A70B55368002423F4706343F4806347
:10102C0053605368202623F0F00343F0B003536061
:10103C00244B254D9A69032142F001029A619A6969
:10104C00842042F480429A6141F64C52A3F55843F5
:10105C009A6042F22C02DA601C615C619C611B4B51
:10106C002C7008226C7085F8024185F803415E6093
:10107C00234685F80442FFF709F92346324602213C
:10108C008120FFF703F92346324602210120FFF7A6
:10109C00FDF82346082203218520FFF7F7F82346A5
:1010AC00324602218220FFF7F1F802212346324614
:1010BC000846FFF7EBF8012385F80C3270BD00BF32
:1010CC0000080140001002405400002000E100E044
:1010DC00F0B52B4D2B4CAB68A26883F40053D705AD
:1010EC00294AC3F34033926848BF43F002035607C2
:1010FC0001D443F00403461E244FC0F101004FF00D
:10110C00000C0AE072787A2A08BFC7F808C216F8F1
:10111C00012F522A1BD143F0010382198A42F1DBC1
:10112C00D9074CBF4FF000524FF400522A619A0776
:10113C004CBF4FF480724FF0807213F0040F226199
:10114C0014BF4FF4802204220F4B1A61F0BD722A97
:10115C000AD0422A0BD0622A0CD0552A0DD0752AFF
:10116C00DBD103F0FB03D8E703F0FE03D5E743F034
:10117C000203D2E703F0FD03CFE743F00403CCE70F
:10118C000010014000080140000C014054000020F8
:10119C002DE9F0415E4C90B094F80C32002B71D0DC
:1011AC00237865785B4FED1A15F0FF055A4E1BD06E
:1011BC0094F80432202DA8BF202503F0FF08002B43
:1011CC0063D13B8803F03003302B0DD029466846A1
:1011DC00FFF744FE2A466946404600F035F92A4698
:1011EC0069460220FFF72AFA94F80432002B62D1E8
:1011FC00338803F44053B3F5005F03D108A90520ED
:10120C00FFF760FA3B8803F44053B3F5005F20D13D
:10121C00012094F80432022B66D094F8023194F831
:10122C0003219B1ADBB2C3F1FF032A2B11DD400013
:10123C0008A90130FFF746FA94F80432054623B9A1
:10124C00024608A9012000F0FFF8E9B208A8FFF750
:10125C00DBFD94F804325BB1304B1B68D4F80822E8
:10126C009A4205D200232E4884F80432FFF756FE2A
:10127C0094F804222B4B002A3FD180221A614FF4A0
:10128C0000121A6110B0BDE8F08194F80432012B01
:10129C000CD1338803F03003302BA5D02946684697
:1012AC00FFF7DCFD2A46694604209BE72946684681
:1012BC00FFF7D4FD98E73B8803F44053B3F5005F88
:1012CC0003D108A90320FFF7FDF9338803F4405339
:1012DC00B3F5005FBDD1114B02201B6803F51C5305
:1012EC001033C4F8083294E708A90520FFF7EAF98F
:1012FC00014608A8FFF7ECFEABE794F80422012A9C
:10130C004FF020021A610CBF4FF400028022B8E7A4
:10131C0054000020045C0040085C00405000002099
:10132C000C000020000C0140034B58881B88C01A8D
:10133C00C0F30900704700BFFE02002038B50D4C09
:10134C000546628892B2FFF7EFFFC0F57F7003305D
:10135C0080B28842C8BF88B22844854201D16280DD
:10136C0038BD15F8011BA31801321971C2F309021B
:10137C00F3E700BFFE02002038B50446FFF7D4FFA8
:10138C00094A88421388C8BF88B29BB221188C4284
:10139C0001D1138038BDD5182D79013304F8015BC8
:1013AC00C3F30903F3E700BFFE020020037803F048
:1013BC007F03212B0BD14378212B08D18388052B5C
:1013CC0005D1044B01200B600723138070470020CC
:1013DC00704700BF1A00002010B5037803F07F039C
:1013EC00212B0CD14378202B09D132B18488012CCC
:1013FC0005D104492046FFF765F9012010BD0020F6
:10140C00FCE700BF1A00002010B5002308220321BE
:10141C008620FEF73BFF0023202202218320FEF7CB
:10142C0035FFBDE810400023202202210320FEF7E7
:10143C002DBF042110B10248FFF780BF0148FBE724
:10144C0004180008081800082DE9F04704460D465A
:10145C001646FFF769FFC0F57F70033080B209288C
:10146C0038D91D4BDA79A24207D01C480321DC7114
:10147C00FFF764FF2046FFF7DCFF4FF0000A5346EE
:10148C00174FDFF860801FFA8AF9B145494605EB22
:10149C00030004DBBDE8F047C91AFFF74FBF6A5CD5
:1014AC000D2A0FD1C91AFFF749FF02214046FFF759
:1014BC0045FF2046FFF7BDFF09F101039BB20AF17E
:1014CC00010AE0E70A2AFAD1C91AFFF737FF03210C
:1014DC003846ECE7BDE8F0871A0000200C1800082D
:1014EC000F1800081018000810B50E4C88B0228890
:1014FC0002F03002302A08D020216846FFF73CFF6A
:10150C00694682B20620FFF799F8238803F440530A
:10151C00B3F5005F03D169460720FFF7D3F808B095
:10152C0010BD00BF0C5C0040002103E00A4B5B586F
:10153C004350043109480A4B42189A42F6D3094ADF
:10154C0002E0002342F8043B074B9A42F9D3FEF722
:10155C0038FE00F00DF87047141800080000002049
:10156C00240000202400002004070020FEE70000D7
:10157C0008B5FEF7CFFDFFF7E9FB234A2348936933
:10158C00234943F01C039361224B1A6822F4700226
:10159C0042F440121A601A6822F0704242F0405233
:1015AC001A601A6822F0706242F040721A601A686F
:1015BC0022F4706242F440721A601A6822F0F0024F
:1015CC001A60426822F4700242F4401242604A6887
:1015DC0022F00F0242F003024A604FF400121A612B
:1015EC004FF400021A614FF480021A614FF400525A
:1015FC0002614FF080720A6104221A61FEF7F1FD5C
:10160C0062B6FFF77BFBFCE70010024000100140C4
:10161C0000080140000C014000000600FF0901A178
:10162C0001150025FF750895020900B20201C012D0
:10163C00011001EF020108C016DF050100010203D1
:10164C000109024401090100803209040000000371
:10165C00000000092101010001221500080B010204
:10166C000202000409040100010202000405240026
:10167C0010010524010002042402020524060102C3
:10168C000705840308006409040200020A00000034
:10169C000705010220000007058102200000080B4D
:1016AC000302020200050904030001020200050501
:1016BC002400100105240100040424020205240660
:1016CC0003040705850308006409040400020A00EA
:1016DC00000007050202200000070582022000001E
:1016EC00080B0503020200060904050001020200B2
:1016FC00060524001001052401000604240202053D
:10170C002406050607058603080064090406000282
:10171C000A000000070503022000000705830220D1
:10172C000000080B0702010100000904070000017A
:10173C0001000009240100011E0001080C24020113
:10174C000102000100000000092403020101000154
:10175C00000904080000010200000904080101014D
:10176C00020000072401020101000B240201010206
:10177C001001E0AB0009058701640001000007259A
:10178C0001000000000A0600020000000801000031
:10179C0004030904160343004F004B0050004F0094
:1017AC00570045004800450055002A0355005300DA
:1017BC004200200052004900530043005600200014
:1017CC00700072006F006700720061006D006D00A8
:1017DC006500720004033100080344004200470016
:1017EC0010035300540046004C00410053004800C5
:1017FC0008034C004F004700E28D8400E28D83000B
:08180C000D0A000A0D000000A6
:10181400400000000000800000002000802500003F
:101824000100088025000001000880250000010057
:0418340008FF0000A9
:040000050800010CE2
:00000001FF
