:020000040800F2
:10000000FF270020C116000809170008091700087B
:100010000917000809170008091700080000000068
:1000200000000000000000000000000009170008A8
:1000300009170008000000000917000895030008D0
:100040000917000809170008091700080917000810
:100050000917000809170008091700080917000800
:1000600009170008091700080917000809170008F0
:1000700009170008091700080917000809170008E0
:1000800009170008091700088F0A00080917000857
:10009000A906000809170008091700080917000831
:1000A00000000000091700080917000809170008D8
:1000B00009170008091700080917000809170008A0
:1000C0000917000809170008091700080917000890
:1000D00009170008070F000809170008091700088A
:1000E0000917000809170008091700080917000870
:1000F00009170008000000000000000000000000D8
:1001000000000000000000000000000000000000EF
:1001100000000000000000000000000000000000DF
:1001200000000000000000000000000000000000CF
:0C01300000000000000000005FF808F173
:10013C00C01900080000002024000020240000202A
:10014C00FC060020214B22495A6A42F080525A6226
:10015C000A6842F480720A605A6B42F400025A63D5
:10016C005A6B22F400025A635A6B42F480725A633F
:10017C005A6B9105FCD55A6B22F440325A635A6B78
:10018C0042F480325A635A6B42F480025A63CA2298
:10019C00104B5A6253225A62DA6842F08002DA60DB
:1001AC00DA685206FCD519690B4A0A401A611A69B9
:1001BC0042F0FF021A611A6942F4FE021A61DA680F
:1001CC0022F08002DA60FF225A6270470038024047
:1001DC000070004000280040008080FF5E4B9A6851
:1001EC0022F003029A6040F6FF7240F2E93100E01F
:1001FC0000BF0139FCD1996811F00C0F00F086801A
:10020C00013A92B2002AF0D14FF0FF30704700BF94
:10021C00013AFCD10A6892031BD4013B9BB2002B20
:10022C0040F096804C4A136843F00103136040F68B
:10023C00FF7340F2E93000E000BF0138FCD11168D7
:10024C00890706D4013B9BB2002BF2D16FF0010061
:10025C007047424B42491A68A3F5806342F004028E
:10026C00C3F80024D3F8002442F00102C3F80024A0
:10027C00D3F8002442F00202C3F800245A6A42F078
:10028C0080525A620A6822F4C05242F400620A6038
:10029C009A6822F47D0270B142F411023149114086
:1002AC0099601A6842F080721A6040F6FF732A4A0D
:1002BC0040F2E93103E042F40802EFE700BF0139F4
:1002CC00FCD11168890119D4013B9BB2002BEFD1F1
:1002DC006FF00200704700BF013AFCD18A6802F04F
:1002EC000C020C2A06D0013B9BB2002BF0D040F242
:1002FC00E932F1E7003018BF0120704793681649C6
:10030C0043F00303936040F6FF73F0E71A6822F49E
:10031C0080321A601A6822F001021A601A6822F4FC
:10032C0080221A601A6822F080721A601A6822F011
:10033C00C0421A601A6842F080421A6000283FF4EA
:10034C0071AF1A68044942F480321A6040F6FF73A8
:10035C0040F2E9325CE700BF00380240003C02404A
:10036C00007000400FC09BFF7047704710F1FF30CA
:10037C0000D2704700BFF9E7024BDA685A600322DB
:10038C001A60704710E000E0024A136801331360F2
:10039C00704700BF240000207047704770477047BB
:1003AC00704700207047002070471C4B1C485A6A4D
:1003BC001C4942F400025A621A6A42F001021A62A3
:1003CC00194A536823F0010353600122174BA3F819
:1003DC0040200823164A013B13F0FF0340F8041B8E
:1003EC0042F8041BF7D1134B00BF013BFCD10F4A61
:1003FC00A2F84030A2F85030A2F84C30A2F84430A9
:10040C004FF4A053A2F840304FF480120A4B1A60FC
:10041C00054A536843F001035360704700380240AB
:10042C007C020020A503000800000140005C004095
:10043C005C020020A086010000E100E0F0B5414C18
:10044C0000F00F074FFA80FCBD00002B08BF2346BD
:10045C0005F18045BCF1000F05F5B84517DA288881
:10046C0020F0C0000005000D40F4004040F080007A
:10047C0028802C88022904F4106444EA070411D063
:10048C00032935D0002936D144F402440CE02C88E1
:10049C0024F0F004A404A40C44F4004444F08004BC
:1004AC002C80E6E744F4004444F080042C80264879
:1004BC003C0104F18044BCF1000F068804F5C044F3
:1004CC001CDA2660214C01F0030144F8273040F679
:1004DC003F730129298803EA010383F400430CBF0D
:1004EC0083F0B00383F0A00332442B800280F0BD74
:1004FC0044F40644D8E744F40444D5E7A660A18943
:10050C003F2A8BBF41F400416FF3CF31A181A18110
:10051C00B4F80CC08ABF5109C2F3440101F1FF3198
:10052C0061F38E2C0A49A4F80CC041F827302B88B3
:10053C0023F0F0039B049B0C83F4304383F0800383
:10054C00D2E700BFA5030008000000205C020020D9
:10055C007C020020F0B548F2800700F00F06B500D1
:10056C004A4C05F1804505F5B845002B08BF2346DC
:10057C002C88022924F0C0044FEA04544FEA145486
:10058C0044EA07042C802C8824F0F0044FEA8444BD
:10059C004FEA944447EA04072F802C8804F4106433
:1005AC0044EA06042FD0032930D091BB44F4024115
:1005BC00DFF8E4C041F080012980BCF80040310133
:1005CC0001F1804110F0800F01F5C04102EB0407EE
:1005DC00604621D04FF0000C0C60C1F804C08F6055
:1005EC00C1F80CC0298881F0300121F4405189B246
:1005FC002980274904EB420241F826302549028024
:10060C0041F82630F0BD44F40141D1E744F40641F1
:10061C00CEE744F40441CBE78C603F2A0F608F880F
:10062C0028D86FF3CF378F808F896FF3CF378F81B7
:10063C00C2F34407B1F804C067F38E2CA1F804C0D0
:10064C00B1F80CC067F38E2CA1F80CC0298821F0EE
:10065C00F0018904890C81F4304181F080012980FA
:10066C00298821F0C0010905090D81F4004181F0B0
:10067C00B001BDE747F400478F808F8947F40047EE
:10068C008F815709013F07F01F07D3E7A503000827
:10069C005C0200207C020020000000202DE9F041CB
:1006AC004A4CB4F84430190430D5494FDFF828814E
:1006BC00B4F8446006F00F06B50005F1804505F569
:1006CC00B8452B881A040BD557F826303046984776
:1006DC002B8823F0F0031B051B0D43F080032B80AC
:1006EC002B881B060CD558F8263046F0800098470E
:1006FC002B8823F0F0031B051B0D43F400432B80C8
:10070C00B4F844301D04D3D4BDE8F081B4F84430BF
:10071C00980506D500F0C5FB4FF6FF53A4F84430FE
:10072C00F2E7B4F8443059052CD5FFF737FE4FF4F7
:10073C001E434022A4F84030264B25491A808023C2
:10074C00A4F84C300824244B244A013C14F0FF0438
:10075C0041F8042B43F8042BF7D14FF6FF321B4B17
:10076C002146A3F8442020461D4B0822FFF766FEC5
:10077C001C4B082221468020FFF760FE1A4B1C60A0
:10078C0000F0F8FA114CB4F844301A050BD5FFF709
:10079C0005FEB4F8403043F00C03A4F840304FF29F
:1007AC00FF73A4F84430094AB2F84430DB04ABD5EB
:1007BC00B2F8403023F00C031B041B0CA2F84030A1
:1007CC004EF6FF73A2F844309EE700BF005C004079
:1007DC007C020020000000205C020020A503000821
:1007EC00DB0800084D08000828000020F0B50025A3
:1007FC00C40004F1804404F5C0442368561C03F182
:10080C00005303F5405376085B00AFB2BE4211D8DB
:10081C004008800000F18040626000F5B840038819
:10082C0023F0C0031B051B0D83F4004383F0B003BE
:10083C000380F0BD31F8157043F825700135E4E7FD
:10084C00F8B50B4C256895B1A7882946082F3E466C
:10085C0028BF082600203246FFF7C8FF072FA7EB5A
:10086C000603A38093BF0023AD1925602360F8BD58
:10087C002800002030B5C20002F1804202F5C042CF
:10088C0003465068C0F3090000B31268441C02F11F
:10089C00005202F5405252006410023902EB8404FB
:1008AC0032F8045BA24221F8025FF9D15B089B008D
:1008BC0003F1804303F5B8431A8822F0F002920446
:1008CC00920C82F4304282F080021A8030BD73B5F3
:1008DC00464B474CDD68A3F580631B88C5F30905BF
:1008EC0013F4006609D094F90630002B17DA0025B2
:1008FC0040490120FFF7BEFFE581A27902F07F039A
:10090C0012063CD54EB373BBE07906280CD00828F0
:10091C0025D040BB02223849FFF768FF1DE0A289B1
:10092C00E3899A42E9D8E2E7012201A901922089E0
:10093C000DF10202ADF8023000F09EF9BDF8022074
:10094C00A38980209A4288BFADF80230BDF80230EE
:10095C00A380019B2360FFF773FF02B070BD0122DF
:10096C0026491846D8E70123019300230DF1020212
:10097C0001A92048ADF8023000F0CCF9DEE7DBB974
:10098C00E279052A10D11A4619461846247AFFF73F
:10099C002DFF1B4A138803F03003302BFAD044F0A0
:1009AC008004A2F84C40D8E7092A05D12289227488
:1009BC00002211461046AFE72A46E1890D4800F0A7
:1009CC00C0F950B90E4A138823F0F0039B049B0C1A
:1009DC0083F4304383F080031380E3891D44A3899F
:1009EC00ADB2AB42E581B8D8E2E700BF0060004091
:1009FC00280000202E000020CC1700083800002012
:100A0C00005C004000F00F0038B583000E4D03F180
:100A1C00804303F5B8432A781C881988C4F38034C2
:100A2C0021F0F0010905090D41F4404141F080012C
:100A3C00013219805200054904EB4000FFF7D6FE45
:100A4C0000232B7038BD00BF3C0000209E0200200C
:100A5C00044A1368A3EB132303EB00101060C0F3DC
:100A6C000F20704704000020044A5368A3EB932323
:100A7C0018445060C0F38F20704700BF0400002062
:100A8C00704710B51B494B7803B94B801A4A013398
:100A9C00946D4A88DBB21444A4B2032B4C8001D869
:100AAC004B7010BD0023A40820464B704C80FFF700
:100ABC00DBFF0B782B2B0BD80B78241AE4000F4A96
:100ACC00DBB224B222F813400B780133DBB20B708B
:100ADC000B79094AFF2B1FBF0B790133DBB20B716A
:100AEC004FF080435B6A9BB2CB80136823F0020308
:100AFC001360D6E73C000020002401409E02002039
:100B0C00174A13792C2B09D94FF08043D96AB1F5C8
:100B1C00357F1AD2D96A0131D96216E013792B2BA1
:100B2C004FF0804305D8D96A2D290ED9D96A0139DD
:100B3C00F2E7D188D86AB1EB500FEBD8D088D96ADC
:100B4C0001EB4101B0EB910FF0D34FF0804300204B
:100B5C005862196841F0040119601071704700BFA8
:100B6C003C00002010B50378812B0CD14378062B68
:100B7C0016D14388B3F5085F12D10A4B01200B60E4
:100B8C001523138010BDA12B0AD14078012807D161
:100B9C000024054B23F8084F0B6002231380F1E768
:100BAC000020EFE7CE1700083C00002010B50378BA
:100BBC00212B23D14378092B20D1EAB1022A1DD154
:100BCC000F4C01202146FFF755FE0E494B69228838
:100BDC0003F47F43D2B213434B61D1F8143422880F
:100BEC00DBB202F47F421343C1F81434064B074ABC
:100BFC001B6803F57A73D360012010BD0020FCE75D
:100C0C009C02002000000240240000203C00002038
:100C1C00104A114913681B0C1B0443F4AA4343F0FC
:100C2C005503136093680B4043F47F3343F47F7395
:100C3C009360D2F800349BB243F0AA4343F4AA0366
:100C4C00C2F80034D2F808349BB20B43C2F8083413
:100C5C00704700BF000002400000FCFF044B1A6804
:100C6C00044BD96891423CBF4FF0FF32DA607047B9
:100C7C00240000203C00002000F47F43B3F5007FEB
:100C8C0010D003D8B3F5807F07D07047B3F5407F01
:100C9C0011D0B3F5C06F0AD07047144B0B60122300
:100CAC0013807047124B0B604FF4A273F8E7114B93
:100CBC000B600A23F4E7C0B20628F2D8DFE800F094
:100CCC0004090B0D0F1113000B4B0B600B681B78F9
:100CDC00E6E70A4BF9E70A4BF7E70A4BF5E70A4B4D
:100CEC00F3E70A4BF1E70A4BEFE700BFE317000805
:100CFC00F5170008391900084419000848190008AC
:100D0C005E190008881900088C190008941900084D
:100D1C00A419000870B504460D461646FFF722FFCD
:100D2C0008B1012070BD204600F078F90028F8D1F8
:100D3C0032462946204600F0DBFB003018BF01206C
:100D4C00F0E770B504460D461646FFF72FFF08B1C5
:100D5C00012070BD32462946204600F0B7F9002824
:100D6C00F6D132462946204600F0D8FB003018BF99
:100D7C000120EEE708B5FFF74BFF3F4B6422012142
:100D8C008720FFF7E7FB3D4B1A6842F003021A601D
:100D9C009A6822F003029A6003F550531A681946B8
:100DAC0042F001021A6040F6FF721868800703D403
:100DBC00013A92B2002AF8D10B6A43F400730B6229
:100DCC002F4B5A68A3F5407342F40002C3F8042376
:100DDC00D3F8042322F44032C3F804235A6922F0D6
:100DEC00E0625A611A6C22F01F0242F008021A6487
:100DFC001A68D205FCD44FF480211A6B22F0F872D9
:100E0C001A639A6822F07C5242F098529A605A689F
:100E1C0042F020025A601B4A11609A6842F00102AB
:100E2C009A60194A13685B06FCD5184A536A43F05A
:100E3C00010353624FF0804300229A62B522DA62BA
:100E4C001A6842F080021A609A6922F4E04242F475
:100E5C00C0429A6101229A639A6942F400629A61D3
:100E6C0010221A621A6842F001021A6000F07CF932
:100E7C00BDE8084000F06ABB110A000800040240FB
:100E8C000027014000E100E000240140003802404E
:100E9C0008B5FFF7E3FE00F02FFABDE8084000F0BC
:100EAC00C5BBFFF72DBE00BF03784078181AC0B23F
:100EBC00704701784278034691420BD00278024485
:100ECC0090781A78C0B20132D2B21A701A78D2B2B3
:100EDC001A70704700207047037842789B1ADBB277
:100EEC00012B09D043780344997043780133DBB26A
:100EFC0043704378DBB24370704710B50F4C2368D6
:100F0C009A0606D561680E48C9B2BDE81040FFF7D5
:100F1C00E3BF23681B060BD5094890F8022190F813
:100F2C0003319A4205D000F58170FFF7C2FF606073
:100F3C0010BDE36823F08003E360F9E7003801405B
:100F4C004C000020F8B50446074F084D4618B44233
:100F5C0000D1F8BD14F8011B3846FFF7BDFFEB6854
:100F6C0043F08003EB60F2E74E01002000380140B3
:100F7C0070B5074E074D441E14F8011F01B970BD22
:100F8C003046FFF7A9FFEB6843F08003EB60F3E713
:100F9C004E0100200038014070B50446084D46183B
:100FAC00B44200D170BD2A786B789B1A13F0FF0FF6
:100FBC00F9D02846FFF77DFF04F8010BF0E700BFDE
:100FCC004C000020F8B506460139134FCCB2FF2C6B
:100FDC0035460DD12B7853B1022C83BF0A232B70CD
:100FEC000D23002385BF6B7000232B70AB70F8BDF5
:100FFC003A787B789B1A13F0FF0FF9D03846FFF73D
:10100C0058FF06F8010B0028E4D0631E0D28DBB254
:10101C00E0D01C46DBE700BF4C000020037803F057
:10102C007F03212B12D14378212B0FD180880128EB
:10103C0004D1074B0B60072313807047032803D19F
:10104C00044B0B600723138001207047002070476E
:10105C000C00002013000020194A136A43F480434B
:10106C0013620368174AB2FBF3F2174B9A6042798A
:10107C0042B9DA6822F48062DA60DA6822F48052CB
:10108C00DA6070474279012A0BD1DA6842F4805257
:10109C00DA60DA6842F48062DA60DA6842F400728C
:1010AC00EEE74279022AECD1DA6842F48052DA6037
:1010BC00DA6842F48062DA60DA6822F40072DFE700
:1010CC00003802400048E8010038014030B5037890
:1010DC009BB003F07F03212B3DD14378202B3AD1D9
:1010EC0012B901201BB030BD8488012C0CD11B49D6
:1010FC002046FFF7BFFB1A4B93F80432002BF0D1BC
:10110C001648FFF7A9FFECE7032C1FD1134D012064
:10111C00E91DFFF7AFFBD5F80730114C322B0AD184
:10112C00022384F804320F4B1B6803F51C53103355
:10113C00C4F80832D5E794F80432022BD1D101213E
:10114C00E81D84F80412FFF787FFECE701A90120E2
:10115C00FFF790FBC5E70020C4E700BF0C000020A0
:10116C004C0000202400002070B520263449354B5B
:10117C00C1F884601A68002422F4401242F4001270
:10118C001A609A68304D42F440129A605A6A2F489D
:10119C0022F4706242F4E0625A621A6822F440222D
:1011AC0042F400221A609A6842F440229A605A6A09
:1011BC0022F0F00242F070025A62254A136A43F49C
:1011CC008043136240F60552224B9A6042F22C0285
:1011DC00DA601C615C619C612C706C7085F802415A
:1011EC0085F803414E60FFF7C3FE23460822032116
:1011FC00842085F80442FFF721F923463246022168
:10120C008120FFF71BF92346324602210120FFF70C
:10121C0015F92346082203218520FFF70FF92346F1
:10122C00324602218220FFF709F902212346324679
:10123C000846FFF703F9012385F80C3270BD00BF97
:10124C0000E100E0000002404C000020AC19000856
:10125C000038024000380140F0B5244B244D1B6986
:10126C002A6983F480731207C3F3002301D543F07A
:10127C000203441E1F4EC0F1010000270AE06278F1
:10128C007A2A08BFC6F8087214F8012F522A14D112
:10129C0043F0010302198A42F1DB13F0010F14BF72
:1012AC004FF080714FF480719B074CBF08234FF4B3
:1012BC0000230E4A9161AB61F0BD722A0AD0422A1A
:1012CC000BD0622A0CD0552A0DD0752AE2D103F02E
:1012DC00FB03DFE703F0FE03DCE743F00203D9E78F
:1012EC0003F0FD03D6E743F00403D3E7000002400C
:1012FC00000402404C000020F0B5564C91B094F81C
:10130C000C32002B61D022786578534FAD1A15F052
:10131C00FF05524E14D094F80432202DA8BF20257E
:10132C00002B54D13B8803F03003302B08D02946D6
:10133C006846FFF731FE2A4669460220FFF756FA47
:10134C0094F80432002B58D1338803F44053B3F58E
:10135C00005F03D108A90520FFF78CFA3B8803F442
:10136C004053B3F5005F17D1012094F80432022BDF
:10137C005CD094F8023194F803219B1ADBB2C3F1D0
:10138C00FF032A2B08DD400008A90130FFF772FA91
:10139C00C1B208A8FFF7D6FD94F804325BB1304B0C
:1013AC001B68D4F808229A4205D200232D4884F8F1
:1013BC000432FFF751FE94F804222B4B002A3ED145
:1013CC004FF480029A6120229A6111B0F0BD94F81A
:1013DC000432012B0CD1338803F03003302BAFD007
:1013EC0029466846FFF7D8FD2A4669460420A5E73A
:1013FC0029466846FFF7D0FDA2E73B8803F440532B
:10140C00B3F5005F03D108A90320FFF733FA338843
:10141C0003F44053B3F5005FBED1114B02201B689F
:10142C0003F51C531033C4F808329EE708A90520B5
:10143C00FFF720FA014608A8FFF70EFFACE794F877
:10144C000422012A4FF400129A610CBF40224FF47F
:10145C008002B9E74C000020045C0040085C0040AE
:10146C00240000200C00002000040240034B58888C
:10147C001B88C01AC0F30900704700BFF602002099
:10148C0038B50D4C0546628892B2FFF7EFFFC0F5F8
:10149C007F70033080B28842C8BF88B2284485422E
:1014AC0001D1628038BD15F8011BA31801321971E6
:1014BC00C2F30902F3E700BFF602002038B5044678
:1014CC00FFF7D4FF094A88421388C8BF88B29BB281
:1014DC0021188C4201D1138038BDD5182D790133D8
:1014EC0004F8015BC3F30903F3E700BFF602002025
:1014FC00037803F07F03212B0BD14378212B08D1E8
:10150C008388052B05D1044B01200B600723138026
:10151C0070470020704700BF1A00002010B50378F8
:10152C0003F07F03212B0CD14378202B09D132B14E
:10153C008488012C05D104492046FFF79BF9012032
:10154C0010BD0020FCE700BF1A00002010B50023DE
:10155C00082203218620FEF771FF0023202202219E
:10156C008320FEF76BFFBDE81040002320220221F0
:10157C000320FEF763BF042110B10248FFF780BFC0
:10158C000148FBE7B3190008B71900082DE9F0472B
:10159C0004460D461646FFF769FFC0F57F70033011
:1015AC0080B2092838D91D4BDA79A24207D01C48E1
:1015BC000321DC71FFF764FF2046FFF7DCFF4FF0DF
:1015CC00000A5346174FDFF860801FFA8AF9B145BD
:1015DC00494605EB030004DBBDE8F047C91AFFF7E9
:1015EC004FBF6A5C0D2A0FD1C91AFFF749FF0221C0
:1015FC004046FFF745FF2046FFF7BDFF09F1010309
:10160C009BB20AF1010AE0E70A2AFAD1C91AFFF7DC
:10161C0037FF03213846ECE7BDE8F0871A000020BD
:10162C00BB190008B0190008B119000810B50E4C10
:10163C0088B0228802F03002302A08D02021684677
:10164C00FFF73CFF694682B20620FFF7CFF82388EC
:10165C0003F44053B3F5005F03D169460720FFF74D
:10166C0009F908B010BD00BF0C5C004070B50D4E00
:10167C000D4D761BB61006D00024013455F8043BF2
:10168C009847A642F9D1094E094DFEF76DFE761B1F
:10169C00B61006D00024013455F8043B9847A642F6
:1016AC00F9D170BDC0190008C0190008C019000894
:1016BC00C0190008002103E00B4B5B584350043168
:1016CC000A480B4B42189A42F6D30A4A02E000230E
:1016DC0042F8043B084B9A42F9D3FEF746FEFFF75B
:1016EC00C5FF00F00DF87047C0190008000000207D
:1016FC002400002024000020FC060020FEE700004F
:10170C0008B50120FEF76AFDFEF736FE294AD369BB
:10171C0043F00F03D361284B1A6822F4406242F461
:10172C0080621A609A6842F440629A601A6822F4E5
:10173C00405242F480521A609A6842F440529A60C5
:10174C001A6822F4407242F480721A609A6842F469
:10175C0040729A601A6842F003021A609A6822F08A
:10176C0003029A60154A116821F4403141F480312A
:10177C001160916841F440319160196821F0C00109
:10178C0041F040011960996841F0C0019960202135
:10179C00996140219961102199614FF48071916197
:1017AC004FF400229A61FEF700FE62B6FFF770FB61
:1017BC00FCE700BF00380240000402400000024079
:1017CC0000000600FF0901A101150025FF75089511
:1017DC00020900B20201C012011001EF020108C09F
:1017EC0016DF050100010203010902440109010091
:1017FC0080320904000000030000000921010100EF
:10180C0001221500080B0102020200040904010068
:10181C000102020004052400100105240100020449
:10182C00240202052406010207058403080064094A
:10183C00040200020A000000070501022000000754
:10184C00058102200000080B0302020200050904B6
:10185C00030001020200050524001001052401000B
:10186C00040424020205240603040705850308006A
:10187C006409040400020A000000070502022000AB
:10188C000007058202200000080B05030202000677
:10189C0009040500010202000605240010010524BC
:1018AC00010006042402020524060506070586032A
:1018BC0008006409040600020A0000000705030280
:1018CC0020000007058302200000080B070201011D
:1018DC0000000904070000010100000924010001B7
:1018EC001E0001080C24020101020001000000008E
:1018FC00092403020101000100090408000001028F
:10190C000000090408010101020000072401020182
:10191C0001000B24020101021001E0AB0009058754
:10192C00016400010000072501000000000A060008
:10193C000200000008010000040309041603430020
:10194C004F004B0050004F00570045004800450029
:10195C0055002A0355005300420020005200490054
:10196C005300430056002000700072006F006700A7
:10197C00720061006D006D0065007200040331009F
:10198C000803440042004700100353005400460073
:10199C004C0041005300480008034C004F00470026
:1019AC00546573740A0D00E28D8400E28D83000D82
:0419BC000A0000001D
:1019C0004000000000008000000020008025000092
:1019D00001000880250000010008802500000100AA
:0419E00008FF0000FC
:04000005080016C118
:00000001FF
