:020000040800F2
:10000000FF270020B9160008011700080117000893
:100010000117000801170008011700080000000080
:1000200000000000000000000000000001170008B0
:1000300001170008000000000117000877030008FE
:100040000117000801170008011700080117000830
:100050000117000801170008011700080117000820
:100060000117000801170008011700080117000810
:100070000117000801170008011700080117000800
:1000800001170008011700087F0A0008011700087F
:100090007106000801170008011700080117000881
:1000A00000000000011700080117000801170008F0
:1000B00001170008011700080117000801170008C0
:1000C00001170008011700080117000801170008B0
:1000D000011700080F0F000801170008011700089A
:1000E0000117000801170008011700080117000890
:1000F00001170008000000000000000000000000E0
:1001000000000000000000000000000000000000EF
:1001100000000000000000000000000000000000DF
:1001200000000000000000000000000000000000CF
:0C01300000000000000000005FF808F173
:10013C00C819000800000020240000202400002022
:10014C00FC060020214B22495A6A42F080525A6226
:10015C000A6842F480720A605A6B42F400025A63D5
:10016C005A6B22F400025A635A6B42F480725A633F
:10017C005A6B9105FCD55A6B22F440325A635A6B78
:10018C0042F480325A635A6B42F480025A63CA2298
:10019C00104B5A6253225A62DA6842F08002DA60DB
:1001AC00DA685206FCD519690B4A0A401A611A69B9
:1001BC0042F0FF021A611A6942F4FE021A61DA680F
:1001CC0022F08002DA60FF225A6270470038024047
:1001DC000070004000280040008080FF574B9A6858
:1001EC0022F003029A6040F6FF724FF47A7100BF5E
:1001FC000139FCD1996811F00C0F5CD0013A92B224
:10020C00002AF2D14FF0FF3070474D4B4D491A6820
:10021C0042F004021A601A6842F001021A601A686D
:10022C0042F002021A60454A536A43F0805353620B
:10023C000B6823F4C05343F400630B60936823F4FE
:10024C007D03D0B143F411033F4919409160136809
:10025C0043F08073136040F6FF73384A4FF47A71A1
:10026C0000BF0139FCD1116889011CD4013B9BB240
:10027C00002BF3D16FF00200704743F40803E3E75F
:10028C0000BF013AFCD18A6802F00C020C2A06D09D
:10029C00013B9BB2002BEDD04FF47A72F0E70038A3
:1002AC0018BF012070479368244943F003039360FF
:1002BC0040F6FF73F0E71A6822F480321A601A686D
:1002CC0022F001021A601A6822F480221A601A685D
:1002DC0022F080721A601A6822F0C0421A601A6802
:1002EC0042F080421A6090B11A68144942F480328C
:1002FC001A6040F6FF734FF47A7200BF013AFCD1DA
:10030C000A68920381D4013B9BB2002BF3D10B4AB8
:10031C00136843F00103136040F6FF734FF47A70D7
:10032C0000BF0138FCD1116889073FF56EAF013B66
:10033C009BB2002BF2D16FF00100704700380240E5
:10034C00003C0240007000400FC09BFF704770479C
:10035C0000B9704700BF0138FAE700BF4FF0E02347
:10036C00DA695A6103221A617047024A1368013331
:10037C001360704724000020704770477047704727
:10038C00704700207047002070471D4B1D485A6A6B
:10039C0042F400025A621A6A42F001021A621A4AC4
:1003AC00536823F0010353600122184BA3F840203B
:1003BC000823174A02F12001013B13F0FF0342F816
:1003CC00040B41F8040BF7D1124B00BF013BFCD1DD
:1003DC000E4AA2F84030A2F85030A2F84C30A2F8E5
:1003EC0044304FF4A053A2F840304FF480120A4B23
:1003FC001A60054A536843F001035360704700BF0D
:10040C00003802408503000800000140005C0040F9
:10041C0028000020A086010000E100E0F0B500F00B
:10042C000F073C4C4FEA870C002B14BF9E46A64688
:10043C000CF1804404F5B844238840B20028B5BFC1
:10044C0023F0C00323F0F0031B059B04B4BF1B0D6A
:10045C009B0C43F4004343F0800323802388022940
:10046C0003F4106343EA070305D0032929D059BBD1
:10047C0043F4024301E043F4004343F08003264E6F
:10048C0023803B0103F1804300283588234803F582
:10049C00C0431CDA1D6040F63F7301F003010129D3
:1004AC002188844403EA010383F40043CCF820E060
:1004BC000CBF83F0B00383F0A0032A442380328066
:1004CC00F0BD43F40643D8E743F40443D5E79D60FD
:1004DC0099893F2A8BBF41F400416FF3CF31998149
:1004EC009981B3F80CC08ABF5109C2F3440101F1E0
:1004FC00FF3161F38E2CA3F80CC0238840F827E061
:10050C0023F0F0039B049B0C83F4304383F08003B3
:10051C00D3E700BF8503000800000020280000205E
:10052C0048F2800CF0B54C4C00F00F05AE00002BDF
:10053C0014BF1F46274606F1804404F5B8442388AF
:10054C00022923F0C0034FEA03534FEA13534CEA3A
:10055C0003032380238823F0F0034FEA83434FEAFD
:10056C0093434CEA030CA4F800C0238803F41063F3
:10057C0043EA05032CD003292DD079BB43F4024365
:10058C00DFF8D8C043F08003BCF8001023802B01A7
:10059C0003F18043000603F5C04301EB020E20D5A6
:1005AC00002019605860C3F808E0D860238823F451
:1005BC0040531B041B0C83F030032380284B01EBAE
:1005CC0042011E44376243F82570ACF80010F0BDB0
:1005DC0043F40143D4E743F40643D1E743F4044323
:1005EC00CEE799603F2AC3F800E0988828D86FF3CB
:1005FC00CF30988098896FF3CF309881C2F3440044
:10060C00B3F804E060F38E2EA3F804E0B3F80CE02A
:10061C0060F38E2EA3F80CE0238823F0F0039B04E8
:10062C009B0C83F4304383F080032380238823F0D6
:10063C00C0031B051B0D83F4004383F0B003BCE720
:10064C0040F400409880988940F40040988150090B
:10065C00013800F01F00D3E78503000800000020DC
:10066C00280000202DE9F0414A4CB4F8443019041C
:10067C002FD5DFF82481B4F8446006F00F06B700DC
:10068C0007F1804505F5B8452B881A040BD558F8A9
:10069C002630304698472B8823F0F0031B051B0DA2
:1006AC0043F080032B802B881B060CD547443B6AF8
:1006BC0046F0800098472B8823F0F0031B051B0D98
:1006CC0043F400432B80B4F844301D04D3D4BDE86C
:1006DC00F081B4F84430980506D500F0E6FB4FF6EF
:1006EC00FF53A4F84430F2E7B4F8443059052DD543
:1006FC00FFF744FE4FF41E434022A4F84030274B32
:10070C0027491A808023A4F84C30234B08241D461B
:10071C0003F12002013C14F0FF0443F8041B42F8DF
:10072C00041BF7D14FF6FF321A4B2146A3F8442095
:10073C00204608221B4BFFF771FE08222146802021
:10074C00194BFFF76BFE2C6400F018FB114CB4F83E
:10075C0044301A050CD5FFF711FEB4F840309BB2AB
:10076C0043F00C03A4F840304FF2FF73A4F844306C
:10077C00084AB2F84430DB04A9D5B2F8403023F073
:10078C000C031B041B0CA2F840304EF6FF73A2F8AE
:10079C0044309CE7005C0040280000200000002052
:1007AC0085030008A10800080D080008F0B5002515
:1007BC00C40004F1804404F5C0442368561C03F1C2
:1007CC00005303F5405376085B00AFB2BE4211D81C
:1007DC004008800000F18040626000F5B84003885A
:1007EC0023F0C0031B051B0D83F4004383F0B003FF
:1007FC000380F0BD31F8157043F825700135E4E73E
:10080C0038B50C4C216CA1B1B4F844500020082D23
:10081C002A4628BF0822FFF7C9FF072D98BF0023DF
:10082C00A5EB020288BF0831A4F844208CBF2164D8
:10083C00236438BD2800002030B5C20002F180428C
:10084C0002F5C04203465068C0F3090008B31468AF
:10085C00421C04F10054521004F5405492006500FF
:10086C00023902EB440235F8044B954221F8024F51
:10087C00F9D15B089B0003F1804303F5B8431A8858
:10088C0022F0F0029204920C82F4304282F0800248
:10089C001A8030BD37B5524B524CDD68A3F58063DE
:1008AC001A8894F84600120594F94630C5F30905E8
:1008BC0003D4002B28DA03B030BD002B1EDA002540
:1008CC00012004F14601FFF7B7FF94F84630A4F875
:1008DC004E5003F07F001B0616D500284BD194F820
:1008EC004730062B27D0082B42D0002B43D10222B5
:1008FC003D4903B0BDE83040FFF758BFB4F84C2079
:10090C00B4F84E309A42DAD900284AD194F84730DC
:10091C00052B3CD10246014694F84840FFF746FFB0
:10092C00324A138803F03003302BFAD044F08004A1
:10093C00A2F84C40BFE70123ADF802000DF1020212
:10094C00B4F8480001A9019300F09CF9B4F84C30BC
:10095C00BDF8022080209A4288BFADF80230BDF865
:10096C000230A4F84430019B2364FFF749FFA2E74F
:10097C0001221F49BDE70123019300230DF102025F
:10098C0001A91C48ADF8023000F0C8F9DEE7092BCC
:10099C0007D1B4F8483084F8503000221146104684
:1009AC00A7E72A46B4F84E10124800F0CEF950B919
:1009BC000E4A138823F0F0039B049B0C83F4304302
:1009CC0083F080031380B4F84E301D44B4F84C30DF
:1009DC00ADB2AB42A4F84E503FF66DAFDDE700BFB1
:1009EC000060004028000020C4170008005C004094
:1009FC00780000206E00002070B5104E00F00F0043
:100A0C003146830003F1804303F5B84311F8022B00
:100A1C001D881C88C5F3803524F0F0042405240DB2
:100A2C0044F4404444F0800401321C80520005EB35
:100A3C004000FFF7BBFE0023337070BD7C0000202C
:100A4C00044A1368A3EB132303EB00101060C0F3EC
:100A5C000F20704704000020044A5368A3EB932333
:100A6C0018445060C0F38F20704700BF0400002072
:100A7C00704710B52149224A91F85A3033B9936D19
:100A8C00A1F85C30012381F85A3010BD946DB1F897
:100A9C005C2001331444DBB2A4B2032BA1F85C40FC
:100AAC00F1D90023A408204681F85A30A1F85C4003
:100ABC00FFF7D2FF0B782B2B0AD80B78241AE40003
:100ACC0001EB430324B25C800B780133DBB20B7077
:100ADC0091F85E300A4AFF2B1FBF91F85E3001334C
:100AEC00DBB281F85E304FF080435B6A9BB2A1F8B9
:100AFC006030136823F002031360C6E77C0000200B
:100B0C00002401401A4A92F85E302C2B09D94FF080
:100B1C008043D96AB1F5357F1FD2D96A0131D962C8
:100B2C001BE092F85E302B2B4FF0804305D8D96A2E
:100B3C002D2912D9D96A0139F1E7B2F86010D86AB7
:100B4C0089B2B1EB500FE8D8B2F86000D96A80B224
:100B5C0001EB4101B0EB910FECD34FF0804300203F
:100B6C005862196841F00401196082F85E00704700
:100B7C007C0000200378812B08D14378062B03D10D
:100B8C004388B3F5085F0FD000207047A12BFBD131
:100B9C004378012BF8D10020054B23F8620F02207B
:100BAC000B601080012070471520024BF8E700BF46
:100BBC007C000020C617000810B50378212B25D126
:100BCC004378092B22D1FAB1022A1FD1104C0120F3
:100BDC0004F16401FFF730FE0E494B69B4F8642050
:100BEC0003F47F43D2B213434B61D1F81424B4F80D
:100BFC006430D2B203F47F431343C1F81434064B70
:100C0C001B6803F57A73A366012010BD0020FCE776
:100C1C007C0000200000024024000020104A1149F2
:100C2C0013681B0C1B0443F4AA4343F055031360D5
:100C3C0093680B4043F47F3343F47F739360D2F893
:100C4C0000349BB243F0AA4343F4AA03C2F8003425
:100C5C00D2F808349BB20B43C2F80834704700BF7B
:100C6C00000002400000FCFF044B1A68044B996E14
:100C7C0091423CBF4FF0FF329A667047240000202F
:100C8C007C00002000F47F43B3F5407F19D006D8D8
:100C9C00B3F5807F07D0B3F5007F09D07047B3F56B
:100CAC00C06F0AD07047134B0B6012231380704730
:100CBC00114B0B604FF4A273F8E7104B0B600A2337
:100CCC00F4E7C0B20628F2D8DFE800F01204080AF4
:100CDC000C0E10000A4B0B601B78E7E7094BFAE788
:100CEC00094BF8E7094BF6E7094BF4E7094BF2E738
:100CFC00094BF0E75418000866180008AA190008F8
:100D0C00E0170008F6170008181800081C1800084F
:100D1C002E18000842180008DC17000870B50446AD
:100D2C000D461646FFF726FF08B1012070BD204680
:100D3C0000F078F90028F8D132462946204600F018
:100D4C00D3FB003818BF0120F0E770B504460D4600
:100D5C001646FFF731FF08B1012070BD3246294617
:100D6C00204600F0B5F90028F6D132462946204637
:100D7C0000F0D0FB003818BF0120EEE708B5FFF7F4
:100D8C004DFF872064223E4B0121FFF7C9FB3D4BF1
:100D9C001A6842F003021A609A6822F003029A6001
:100DAC0003F550531A6842F001021A6040F6FF72C4
:100DBC001968890703D4013A92B2002AF8D11A6A49
:100DCC0042F400721A62304B5A68A3F5407342F435
:100DDC000002C3F80423D3F8042322F44032C3F8EE
:100DEC0004235A6922F0E0625A611A6C22F01F0245
:100DFC0042F008021A641A68D205FCD44FF4802120
:100E0C001A6B22F0F8721A639A6822F07C5242F044
:100E1C0098529A605A6842F020025A601B4A11603C
:100E2C009A6842F001029A60194A13685B06FCD575
:100E3C00184A536A43F0010353624FF08043002277
:100E4C009A62B522DA621A6842F080021A609A69D4
:100E5C0022F4E04242F4C0429A6101229A639A69F8
:100E6C0042F400629A6110221A621A6842F001027E
:100E7C001A6000F077F9BDE8084000F061BB00BFD4
:100E8C00050A0008000402400027014000E100E0D0
:100E9C00002401400038024008B5FFF7E5FE00F0E1
:100EAC0029FABDE8084000F0BBBBFFF72BBE00BF22
:100EBC0003784278981AC0B270470178427803469A
:100ECC0091420BD00278024490781A78C0B2013269
:100EDC00D2B21A701A78D2B21A70704700207047CA
:100EEC00037842789B1ADBB2012B09D04378034478
:100EFC00997043780133DBB243704378DBB24370B3
:100F0C00704710B50F4C23689A0606D561680E48D9
:100F1C00C9B2BDE81040FFF7E3BF23681B060BD531
:100F2C00094890F8022190F803319A4205D000F557
:100F3C008170FFF7C2FF606010BDE36823F080038F
:100F4C00E360F9E700380140E800002070B5044682
:100F5C004518074E0748AC4200D170BD14F8011B70
:100F6C00FFF7BEFFF36843F08003F360F3E700BFC5
:100F7C0000380140EA01002038B5441E064D0748F0
:100F8C0014F8011F01B938BDFFF7AAFFEB6843F055
:100F9C008003EB60F4E700BF00380140EA01002059
:100FAC0070B50446084E4518AC4200D170BD32787D
:100FBC0073789B1A03F0FF03002BF8D03046FFF731
:100FCC007CFF04F8010BEFE7E8000020F8B50546BC
:100FDC004C1E134EE4B2FF2C2F460DD13B7853B16F
:100FEC00022C83BF0A233B700D23002385BF7B702B
:100FFC0000233B70BB70F8BD327873789B1A03F0FA
:10100C00FF03002BF8D03046FFF757FF05F8010B14
:10101C000028E3D0631E0D28DBB2DFD01C46DAE7D4
:10102C00E8000020037803F07F03212B10D14378D4
:10103C00212B0DD18388012B04D1064B0B60072388
:10104C00138001E0032B01D001207047024BF5E720
:10105C00002070470C00002013000020194A136A6E
:10106C0043F4804313620368174AB2FBF3F2174B45
:10107C009A60427942B9DA6822F48062DA60DA68FE
:10108C0022F48052DA6070474279012A0BD1DA6877
:10109C0042F48052DA60DA6842F48062DA60DA682C
:1010AC0042F40072EEE74279022AECD1DA6842F49B
:1010BC008052DA60DA6842F48062DA60DA6822F42C
:1010CC000072DFE7003802400048E80100380140B8
:1010DC0010B503789AB003F07F03212B3AD14378F3
:1010EC00202B37D162B1808801280CD11A49FFF727
:1010FC00A3FB1A4B93F8043213B91748FFF7AEFF52
:10110C0001201AB010BD03281FD1134C0120E11D82
:10111C00FFF792FBD4F807301049322B0AD1022387
:10112C0081F804320E4B1B6803F51C531033C1F8C5
:10113C000832E5E791F80432022BE1D10123E01DDE
:10114C0081F80432FFF78AFFECE701A90120FFF7D1
:10115C0073FBD5E70020D4E70C000020E80000204A
:10116C002400002070B520263449354BC1F884602A
:10117C001A68002422F4401242F400121A609A6891
:10118C00304D42F440129A605A6A2F4822F4706231
:10119C0042F4E0625A621A6822F4402242F40022BD
:1011AC001A609A6842F440229A605A6A22F0F0025D
:1011BC0042F070025A62254A136A43F48043136268
:1011CC0040F60552224B9A6042F22C02DA601C6106
:1011DC005C619C612C706C7085F8024185F8034150
:1011EC004E60FFF7C9FE234608220321842085F8B0
:1011FC000442FFF713F92346324602218120FFF700
:10120C000DF92346324602210120FFF707F9234648
:10121C00082203218520FFF701F9234632460221DB
:10122C008220FFF7FBF80221234632460846FFF7DF
:10123C00F5F8012385F80C3270BD00BF00E100E029
:10124C0000000240E8000020B419000800380240F9
:10125C0000380140F0B5244B244D1B692A6983F4F6
:10126C0080731207C3F3002301D543F00203441E1D
:10127C0000271F4EC0F101000AE062787A2A08BFED
:10128C00C6F8087214F8012F522A14D143F0010346
:10129C0002198A42F1DB13F0010F14BF4FF0807179
:1012AC004FF480719B074CBF08234FF400230E4A68
:1012BC009161AB61F0BD722A02D103F0FE03E7E746
:1012CC00422A02D143F00203E2E7622A02D103F080
:1012DC00FD03DDE7552A02D143F00403D8E7752A54
:1012EC00D6D103F0FB03D3E7000002400004024018
:1012FC00E800002030B5564C91B094F80C32002B1D
:10130C0061D023786578ED1A15F0FF0515D094F8A7
:10131C000422202D28BF20254E4B002A55D19B8816
:10132C0003F03003302B08D029466846FFF738FE0F
:10133C002A4669460220FFF739FA94F80432454DE3
:10134C00002B58D12B8903F44053B3F5005F03D124
:10135C00052008A9FFF770FAAB8803F44053B3F5E6
:10136C00005F17D1012094F80432022B5CD094F862
:10137C00023194F803219B1ADBB2C3F1FF032A2B31
:10138C0008DD400008A90130FFF756FAC1B208A8E1
:10139C00FFF7DCFD94F804325BB12F4B1B68D4F8DB
:1013AC0008229A4205D200232C4884F80432FFF715
:1013BC0055FE94F804222A4B002A3ED14FF48002A9
:1013CC009A6120229A6111B030BD94F80422012A4E
:1013DC000CD11B8903F03003302BAED02946684664
:1013EC00FFF7DEFD2A4669460420A4E72946684635
:1013FC00FFF7D6FDA1E7AB8803F44053B3F5005FCC
:10140C0003D1032008A9FFF717FA2B8903F44053E3
:10141C00B3F5005FBED1104B02201B6803F51C53C3
:10142C001033C4F808329EE708A90520FFF704FA28
:10143C00014608A8FFF70EFFACE794F80422012A36
:10144C004FF400129A610CBF40224FF48002B9E7AE
:10145C00E8000020005C0040240000200C0000206C
:10146C0000040240034B58881B88C01AC0F30900C3
:10147C00704700BFF602002038B50D4D04466A884F
:10148C00FFF7F0FFC0F57F7303339BB28B42C8BFED
:10149C008BB292B223449C4201D16A8038BD14F8BD
:1014AC00010BA91801320871C2F30902F3E700BF5E
:1014BC00F602002038B50246FFF7D4FF094C8842EB
:1014CC002388C8BF88B29BB211188A4201D12380ED
:1014DC0038BDE5182D79013302F8015BC3F309031C
:1014EC00F3E700BFF6020020037803F07F03212B03
:1014FC000BD14378212B08D18388052B05D1044BC4
:10150C0001200B600723138070470020704700BF39
:10151C001A00002008B5037803F07F03212B0BD1B0
:10152C004378202B08D12AB18088012804D10349A3
:10153C00FFF782F9012008BD0020FCE71A0000200B
:10154C0010B50023082203218620FEF767FF002335
:10155C00202202218320FEF761FFBDE8104000230A
:10156C00202202210320FEF759BF042110B10248AA
:10157C00FFF782BF0148FBE7BB190008BF19000841
:10158C002DE9F8430546FFF76DFFC0F57F7003307A
:10159C0080B209280E46174637D91D4BDA79AA4274
:1015AC0007D01C480321DD71FFF766FF2846FFF7C3
:1015BC00DCFF00231A46DFF86080DFF8609099B2F8
:1015CC00B94206EB020004DBBDE8F843891AFFF7C9
:1015DC0053BF16F801C05C1CBCF10D0F0CD1891A5D
:1015EC00FFF74AFF02214846FFF746FF2846FFF760
:1015FC00BCFFA2B22346E2E7BCF10A0FFAD1891A6A
:10160C00FFF73AFF03214046EEE7BDE8F88300BF41
:10161C001A000020C3190008B8190008B9190008ED
:10162C000F4B00B59B8989B003F03003302B08D0E9
:10163C0020216846FFF73EFF694682B20620FFF77D
:10164C00B5F8074B9B8903F44053B3F5005F03D106
:10165C0069460720FFF7F0F809B05DF804FB00BFFE
:10166C00005C004070B50D4E0D4D761BB61006D0CB
:10167C00002455F8043B01349847A642F9D1094E91
:10168C00094DFEF763FE761BB61006D0002455F804
:10169C00043B01349847A642F9D170BDC819000823
:1016AC00C8190008C8190008C8190008002103E06F
:1016BC000B4B5B58435004310A480B4B42189A426F
:1016CC00F6D30A4A02E0002342F8043B084B9A4244
:1016DC00F9D3FEF73CFEFFF7C5FF00F00DF870479D
:1016EC00C81900080000002024000020240000205D
:1016FC00FC060020FEE7000008B50120FEF76EFD99
:10170C00FEF72CFE294AD36943F00F03D361284B13
:10171C001A6822F4406242F480621A609A6842F4B9
:10172C0040629A601A6822F4405242F480521A6065
:10173C009A6842F440529A601A6822F4407242F459
:10174C0080721A609A6842F440729A601A6842F089
:10175C0003021A609A6822F003029A60154A116813
:10176C0021F4403141F480311160916841F44031F1
:10177C009160196821F0C00141F04001196099682D
:10178C0041F0C0019960202199614021996110219B
:10179C0099614FF4807191614FF400229A61FEF7C8
:1017AC00F4FD62B6FFF778FBFCE700BF003802409F
:0817BC0000040240000002409D
:1017C40000000600FF0901A101150025FF75089519
:1017D400020900B20201C000040309041603430015
:1017E4004F004B0050004F00570045004800450093
:1017F400550022034B006100720061006B00610020
:10180400740069007400730061005F0047004400C5
:101814003300320004033100120347004400330054
:1018240032005F00440042004700140347004400B4
:10183400330032005F00500052004F004700120393
:1018440047004400330032005F004C004F00470063
:1018540012011001EF020108C016DF0501000102A8
:101864000301090244010901008032090400000057
:1018740003000000092101010001221500080B01E9
:10188400020202000409040100010202000405240A
:1018940000100105240100020424020205240601AB
:1018A400020705840308006409040200020A000018
:1018B400000705010220000007058102200000083E
:1018C4000B030202020005090403000102020005E1
:1018D4000524001001052401000404240202052447
:1018E4000603040705850308006409040400020ACA
:1018F4000000000705020220000007058202200004
:1019040000080B0503020200060904050001020297
:101914000006052400100105240100060424020227
:101924000524060506070586030800640904060065
:10193400020A0000000705030220000007058302D5
:10194400200000080B070201010000090407000041
:101954000101000009240100011E0001080C2402F9
:10196400010102000100000000092403020101003A
:101974000100090408000001020000090408010133
:1019840001020000072401020101000B24020101ED
:10199400021001E0AB0009058701640001000007A3
:1019A4002501000000000A060002000000080100F2
:1019B400546573740A0D00E28D8400E28D83000D7A
:0419C4000A00000015
:1019C800400000000000800000002000802500008A
:1019D80001000880250000010008802500000100A2
:0419E80008FF0000F4
:04000005080016B920
:00000001FF
